:020000040800F2
:10000000E80400209D010008D91400081513000819
:10001000D5140008B1030008311A000800000000E0
:100020000000000000000000000000000D150008A6
:10003000B503000800000000091500086516000857
:10004000B7010008B7010008B7010008B7010008B0
:10005000B7010008B7010008B7010008B7010008A0
:10006000B7010008B7010008B7010008B701000890
:10007000B7010008B7010008B7010008B701000880
:10008000B7010008B7010008B7010008B701000870
:10009000B7010008B7010008B7010008B701000860
:1000A000B7010008B7010008B7010008B701000850
:1000B000B7010008B7010008B7010008B701000840
:1000C000B7010008B7010008B7010008B701000830
:1000D000B7010008111A0008211A0008B70100082A
:1000E000B7010008B7010008B7010008B701000810
:1000F000B7010008B7010008B7010008B701000800
:10010000B7010008B7010008B7010008B7010008EF
:10011000B7010008B7010008B7010008B7010008DF
:10012000B7010008B7010008B7010008B7010008CF
:10013000B7010008B7010008B7010008B7010008BF
:10014000B7010008B7010008B7010008B7010008AF
:10015000B7010008B7010008B7010008B70100089F
:10016000B7010008B7010008B7010008B70100088F
:10017000B7010008B7010008B7010008000000003F
:10018000B7010008B7010008DFF80CD000F07AF8DA
:1001900000480047111B0008E8040020064880477B
:1001A00006480047FEE7FEE7FEE7FEE7FEE7FEE75C
:1001B000FEE7FEE7FEE7FEE71517000889010008E5
:1001C0002DE9F05F0546002092469B46884606468C
:1001D000814640241BE0284641464746224600F01F
:1001E00041F853465A46C01A914110D31146184659
:1001F000224600F028F82D1A67EB01084F462246E8
:100200000120002100F01FF817EB00094E41201ECD
:10021000A4F10104DFDC484631462A464346BDE8E6
:10022000F09FD2B201E000F8012B491EFBD27047CB
:100230000022F6E710B513460A4604461946FFF7B2
:10024000F0FF204610BD202A04DB203A00FA02F11C
:10025000002070479140C2F1200320FA03F31943B4
:1002600090407047202A04DB203A21FA02F0002156
:10027000704721FA02F3D040C2F1200291400843B6
:1002800019467047064C074D06E0E06840F0010350
:1002900094E8070098471034AC42F6D3FFF778FF94
:1002A000D81B0008F81B000810B542F20432C4F253
:1002B0000102116821F440311160D2F800C090E8C9
:1002C0000A4043EA0C03C46813604A6822F480724F
:1002D0004A6002694B6843EA02224A604A6822F097
:1002E00040724A604A6842EA0E024A608A6822F412
:1002F00000628A608A6822438A60826A8B6801246D
:1003000023F070638B608B68C0F60074A24202D148
:1003100023F0405208E01A438A608A6822F0405273
:100320008A60C26A8B681A438A608A6822F0020275
:100330008A608A68037E90F8204042EA43028A601D
:100340004A6884B142F400624A604A684EF200038F
:1003500022F460424A60426ACFF6FF734C6803EBB6
:100360004232224301E022F400624A60CA6A40F24B
:10037000000C22F47002CA62C3694269CFF6F07CB5
:10038000CC6A0CEB03532343CB628B6823F40073DA
:100390008B6090F830008B6843EA40208860886862
:1003A00020F480608860886840EA8220886010BD00
:1003B000FEE7000070470000EFF3108072B600BF48
:1003C000FEE70000B0B5C9B14FF6FF724FF0000C68
:1003D0004AF2010E10F80C305A40082314468EEAF7
:1003E0005202E50708BF6208013BF7D10CF1010C8E
:1003F0008C45EFD1C2F30723D1B201E0FF21FF23E7
:100400008171C371B0BD000070B581B0002200924F
:1004100090F83C20012A01D1022156E00E68012209
:100420001FFA86FC80F83C204FEA4C0212FA86F351
:1004300002680A2E32BF10321E3B0C324FF0070EFC
:1004400015680EFA03F4A54315608D68146805FA63
:1004500003F3234313604968062906D8026801EBB9
:100460008101053902F134030AE00C2901EB810115
:10047000026887BF413902F12C03233902F13003AE
:100480001F221C688A4024EA02021A601A680CFAC9
:1004900001F1114342F2043E1960C4F2010E0168F9
:1004A000122EAEF5417208BF914205D1DEF8003040
:1004B00043F48003CEF8003026F00103102B08BF70
:1004C000914205D0002180F83C10084601B070BD73
:1004D000DEF80010102E41F40001CEF80010F1D12A
:1004E00040F20001C2F2000109684DF68362C4F2D5
:1004F0001B32A1FB0212910C01EB8101490000BFEC
:10050000009100990029DDD000990139F8E7000039
:10051000B0B510B30446006C30B9204600F020F8A6
:100520000020606484F83C00206C0125C0060FD4D4
:10053000206C41F202118843023020642046FFF70C
:10054000B3FE00206064206C65F301000025206488
:10055000002084F83C002846B0BD0120B0BD00005A
:1005600080B586B042F200110068C4F20101002299
:1005700088420592CDE903220292019201D006B091
:1005800080BD43F630000092C4F20200436943F498
:1005900000734361436903F400730093009B00926E
:1005A000036843F004030360006800F00400009057
:1005B0000098082001900320CDE9020201F5674070
:1005C00001A900F069F806B080BD000070B5866D25
:1005D000044600F03BF994F83510022925D1054670
:1005E0002068216C026822F016020260426922F043
:1005F0008002426109B9A16C19B1016821F00801BA
:100600000160016821F00101016000BF20680068FD
:10061000C0070ED000F01AF9401B0628F6D32020A0
:100620006065032084F835000CE0802060650120BF
:1006300008E0E06D3F2101FA00F0B060012084F88D
:1006400035000020002184F8341070BD90F835107A
:10065000022909D1052180F835100068016821F0D0
:100660000101016000207047802141650120704731
:10067000B0B5044600F0EAF8054640F20400C2F2C4
:1006800000000078611C18BF044400BF00F0DEF8D1
:10069000401BA042FAD3B0BD2DE9F04F83B000F16A
:1006A0003E4202F1FF724FEAB22241F60047019248
:1006B000C4F2020708224FF0010E00254FF0000A95
:1006C0004FF00008B84208BF072200920AE000BFBE
:1006D00008F101080AF1040AB8F1100F05F102054A
:1006E00000F0A4800C680EFA08FB14EA0B09EFD0A6
:1006F0004C6804F0030CACF1010EBEF1010F11D8EF
:100700000322876802FA05F6CA68B743AA403A434B
:1007100082604268C4F3001722EA0B0207FA08F766
:100720003A434260BCF1030F1CD0C26803238E68B9
:1007300003FA05F7BA4306FA05F73A43BCF1020F8C
:10074000C2600FD16FF0030202EA580202440AF0BD
:100750001C060F23176A03FA06F40B69A743B3407C
:100760003B431362026803234F68AB409A4307F090
:100770000303AB401A4317F4403F4FF0010E0260F1
:10078000A6D0002243F644030292C4F202031A6880
:1007900043F6004442F480421A601A68C4F201042D
:1007A00002F480420292029A28F003024FF6084BAC
:1007B0002244CFF6FF7B52F80B300AF00C070F26CD
:1007C000BE4023EA060C019B009E072B38BF1E4645
:1007D00006FA07F747EA0C0342F80B30A2684B68A9
:1007E00042EA090743F60C4CDE0258BF22EA090729
:1007F000A760C4F2010CDCF800209E0242EA09075F
:1008000058BF22EA0907CCF8007062689E0342EAEA
:10081000090758BF22EA090767602268DB0342EA3A
:10082000090358BF22EA0903236051E703B0BDE87A
:10083000F08F00000069084018BF012070470000D9
:10084000002A08BF090481617047000040F2E000FF
:10085000C2F200000068704740F2040040F2E0017C
:10086000C2F20000C2F2000100780A681044086079
:100870007047000080B543F60040C4F202000168F2
:1008800041F400710160016841F480610160016818
:1008900041F480710160032000F060F80F2000F047
:1008A00005F800F02BF8002080BD0000B0B540F244
:1008B0000402C2F2000240F200011278C2F200010A
:1008C0004FF47A730968B3FBF2F20446B1FBF2F11C
:1008D000084600F0F9FA0F2C4FF001050CD858B972
:1008E0004FF0FF3021460022002500F027F840F2AB
:1008F0000800C2F2000004602846B0BD82B00020AB
:1009000043F640010190C4F202014A6842F4804279
:100910004A604A6802F480420192019A0090086895
:1009200040F080500860086800F080500090009807
:1009300002B0704780B501F07DF880BD70B51446F7
:100940000D46064601F086F82946224600F0C6FD0F
:100950000146304601F086F870BD000080B501F018
:1009600093F880BD2DE9F041002800F08B8043F61C
:100970000808C4F202080446D8F8F8030D4600F04F
:100980000700884207D288F8F853D8F8F80300F037
:100990000700A84276D12068810717D5410705D501
:1009A000D8F8001041F4E051C8F80010010705D54F
:1009B000D8F8001041F46041C8F80010D8F80010D1
:1009C000A26821F0F0011143C8F80010C0073FD120
:1009D000D8F8F80300F00700A84207D988F8F853C0
:1009E000D8F8F80300F00700A8424BD1206841076F
:1009F00007D5D8F80010E26821F4E0511143C8F897
:100A00000010000708D5D8F80000216920F46040E4
:100A100040EAC100C8F8000000F07EF8D8F80010E5
:100A200041F6C032C1F30311C0F60002515C40F23E
:100A3000000220FA01F140F20800C2F20000006852
:100A4000C2F200021160FFF731FF0020BDE8F08123
:100A50006068811E022907D258F8081C89015CBF12
:100A60000120BDE8F08110E0012807D158F8081CEA
:100A700089035CBF0120BDE8F08106E058F8081C3E
:100A8000890702D40120BDE8F081D8F8001021F0D8
:100A900003010843C8F80000FFF7D8FE064641F2FC
:100AA000883700BFD8F80000616800F00C00B0EB98
:100AB000810F8DD0FFF7CAFE801BB842F2D9032008
:100AC000BDE8F08140F20000C2F20000006870470B
:100AD00080B5FFF7F7FF43F60801C4F20201096889
:100AE00041F6D032C1F38221C0F60002515CC84009
:100AF00080BD000080B5FFF7E5FF43F60801C4F2B2
:100B00000201096841F6D032C1F34231C0F6000259
:100B1000515CC84080BD000010B543F60404C4F227
:100B20000204606800F00C0008280AD0042819BFED
:100B300042F20040C0F2F40047F64000C0F27D10DF
:100B400010BD206821682368490247F64001C0F2C1
:100B50007D1100F03F02C3F388105CBF42F20041F8
:100B6000C0F2F401A1FB00010023FFF729FB21687B
:100B70000222C1F3014102EB4101B0FBF1F010BDD3
:100B80002DE9F04182B0002800F0A28004460078F0
:100B900043F60006C007C4F2020643D0B06800F076
:100BA0000C00042805D1306880033BD56068C8BBC1
:100BB0008EE0B06800F00C00082802D17068400296
:100BC000F1D46568B5F5A02F0AD0B5F5803F0BD0FC
:100BD000306820F480303060306820F4802006E0F7
:100BE000306840F480203060306840F480303060FD
:100BF000FFF72CFE002D054611D000BF30688003A2
:100C000010D4FFF723FE401B6428F7D922E100BF70
:100C1000FFF71CFE401B64284FF0030055D83068D6
:100C20008003F5D4207880071AD5B06810F00C0F37
:100C300009D0B06800F00C00082840F08A80706885
:100C4000400200F186803068800702D5E068012804
:100C50003ED13068216920F0F80040EAC1003060E0
:100C60002078000738D4207840074CD4A5695DB3BC
:100C7000B06800F00C00082840F09E80012D27D0BD
:100C80007068E16900F480028A4221D1216A00F093
:100C90003F028A421CD147F6C071626A0140B1EB43
:100CA000821F15D1A26A0023CFF6FF7303EBC23275
:100CB00000F440316FF30F02914209D1E16A00F074
:100CC0007060B0EB016F03D1002002B0BDE8F0818D
:100CD000012002B0BDE8F0816069002840F2000008
:100CE000C4F2472057D00121C0F8801EFFF7AEFDA7
:100CF000054600BF706F8007B5D4FFF7A7FD401B06
:100D00000228F7D9A6E0306C10F080580AD10020F4
:100D10000190306C40F080503064306C00F08050B6
:100D20000190019847F20007C4F200073868C00537
:100D300024D4386840F480703860FFF787FD05469A
:100D40003868C0051AD4FFF781FD401B0228F7D987
:100D500080E0E068002851D00020C4F24720012143
:100D60000160FFF773FD0546306880073FF571AFFE
:100D7000FFF76CFD401B0228F6D96BE0A568052D36
:100D800050D0012D52D0306F20F001003067306F0D
:100D900020F004004DE00021C0F8801EFFF756FD52
:100DA000054600BF706F80077FF55DAFFFF74EFD12
:100DB000401B0228F6D94DE00027C4F24727002047
:100DC0003866FFF743FD022D05460BD130688001E0
:100DD00058D5FFF73BFD401B02284FF00300F5D923
:100DE00073E700BF306880017FF56EAFFFF72EFD1F
:100DF000401B02284FF00300F4D966E70020C4F23C
:100E0000472000210160FFF721FD0546306880077B
:100E10007FF526AFFFF71AFD401B02284FF00300B5
:100E2000F4D952E7306F40F004003067306F40F083
:100E300001003067FFF70AFD002D054641F28837B3
:100E400014D000BF306F800713D4FFF7FFFC401BA6
:100E5000B842F7D9032002B0BDE8F081FFF7F6FCF5
:100E6000401BB8424FF003003FF62FAF306F8007B2
:100E7000F4D4B8F1000F7FF4F9AE306C20F080505C
:100E80003064F3E604F11C052FCD08430021CFF6B2
:100E9000FF7140EA821001EBC3316FF30F0140EAAA
:100EA00005600843706001203866FFF7CFFC0446F8
:100EB000306880013FF508AFFFF7C8FC001B02282F
:100EC0004FF00300F4D900E780B500F0B3FB80BD1C
:100ED0007047000070470000B0B582B00368044658
:100EE0001868D9685A6900F02F05202D01F02005F7
:100EF00005D125B1204600F053FC02B0B0BD5FEA39
:100F0000007C1EBF02F0010E01F4907212EB0E0283
:100F100048D1226B0840C1063BD5012A39D10020B7
:100F2000019018680190586801900198586940062E
:100F300040D4A08DE18DE28D002A1CBF401A5FEAEB
:100F4000004101D102B0B0BD216851E8031F226801
:100F500021F4907142E80313002BF5D1216851E888
:100F6000051F226821F0010142E80513002BF5D18D
:100F7000202184F83E100021216300BF216851E840
:100F8000031F226821F0100142E80313002BF5D162
:100F900052E0010656D44006D4D5204600F0F4FBBA
:100FA00002B0B0BDC20718BF11F480724FD1420722
:100FB00053D459E0A06B016849688AB2002AC1D0B5
:100FC000A38D9A42BED2E185C069B0F5807F30D052
:100FD000206850E8030F216820F4807041E8030284
:100FE000002AF5D1206850E8050F216820F00100A3
:100FF00041E80502002AF5D1206850E8050F216874
:1010000020F0400041E80502002AF5D1202084F8B4
:101010003E000020206300BF206850E8030F2168D5
:1010200020F0100041E80302002AF5D1A06BFFF781
:10103000CDFAA08DE18D401A81B22046FFF748FF1E
:1010400002B0B0BD204600F07BFC02B0B0BD226C07
:1010500042F001022264420706D5BEF1000F03D020
:10106000226C42F002022264820706D5BEF1000F14
:1010700003D0226C42F004022264BCF1000F06D5BA
:101080005EEA050203D0226C42F008022264226C60
:10109000002A3FF457AF0840800602D5204600F0F2
:1010A0007FFB20684069216C00F0400001F00801DE
:1010B000401827D0204600F03FFB206840694006DA
:1010C0001BD500BF206850E8050F216820F04000C4
:1010D00041E80502002AF5D1A06B70B141F22971F7
:1010E000C0F600010165FFF7B1FA00283FF42AAF0E
:1010F000A06B016D884702B0B0BD2046FFF7EAFE45
:1011000002B0B0BD2046FFF7E5FE0020206402B02B
:10111000B0BD0000002804BF0120704710B5044690
:1011200090F83D0028B9002084F83C00204600F0EB
:1011300021F8242084F83D002068C16821F4005182
:10114000C160204600F08EFB2068016921F49041C7
:101150000161416921F02A014161C16841F40051F6
:10116000C16000202021206484F83D1084F83E10E6
:1011700010BD000010B586B0006844F20042C4F211
:10118000000200219042CDE90411CDE90211019144
:1011900022D041F20001C4F2010188424DD1002069
:1011A00043F630010090C4F202014A69252442F05E
:1011B00010024A614A6902F010020092009A0090FF
:1011C000086840F001000860086800F00100009025
:1011D00000984FF4C06019E043F630000091C4F26B
:1011E00002000269262442F400320261026902F41C
:1011F00000320092009A0091016841F00101016003
:10120000006800F00100009000980C20019002207E
:1012100002900020039003200490072005900020F6
:10122000C4F2020001A9FFF737FA2046002100228C
:10123000FFF784FB2046FFF77DFB06B010BD0000E2
:10124000704700002DE9F04381B0044690F83D005E
:1012500020280BD10E4600294FF0010055D017462B
:10126000002A52D094F83C00012803D1022001B09A
:10127000BDE8F083012084F83C004FF000092120F4
:101280001D46C4F8409084F83D00FFF7DFFAA784BC
:10129000E784A1680746B1F5805F07D1206900287F
:1012A0001CBF30464E46B046064601E04FF00008EF
:1012B00084F83C9007E000BF16F8010B21684860F5
:1012C000E08C0138E084E08C80B1204680213A46F1
:1012D0002B4600F05FFB80B9002EEDD138F8020BF1
:1012E00021686FF35F2048600026E9E7204640212F
:1012F0003A462B4600F04EFB18B1032001B0BDE882
:10130000F083202084F83D00002001B0BDE8F08388
:1013100070470000FEE7000010B584B040F21000F6
:1013200001240021C2F2000042F20012C0F6007453
:10133000C4F201024FF48033C0E90A410124CDE92F
:101340000211CDE90011017680F82010C46180F807
:101350003010C0E90023C0E90211C0E90414FFF70E
:10136000D7F8002818BFFFF727F80D20CDE90004B3
:101370000720029040F21000C2F200006946FFF719
:1013800043F8002818BFFFF717F804B010BD00009D
:101390002DE9F04186B0002643F630000596CDE9F0
:1013A0000366CDE901660096C4F20200016840F6CA
:1013B000000441F0800101600168C4F2020401F000
:1013C00080010091009900960168002241F004011B
:1013D00001600168012701F0040100910099009665
:1013E000016841F001010160016801F00101009113
:1013F00000990096016841F008010160016801F060
:101400000801009100990096016841F00201016015
:101410000068012100F00200009000982046FFF7CC
:101420000FFA01AD4FF0020820462946CDE90177B9
:101430000396CDF81080FFF72FF9A4F50060294638
:10144000CDE90176CDF80C80FFF726F94FF4C060A6
:1014500001A9C1C104F580602946FFF71DF906B056
:10146000BDE8F08180B540F2580041F20001C2F2BF
:101470000000C4F2010100234FF00C0C4FF416528F
:1014800080E80E00C0E90333C0E905C3C361FFF77C
:1014900041FE002818BFFEF78FFF80BD80B540F2E7
:1014A0009C0044F20041C2F20000C4F2000100239B
:1014B0004FF00C0C4FF4165280E80E00C0E90333D5
:1014C000C0E905C3C361FFF725FE002818BFFEF77A
:1014D00073FF80BDFEE70000FEE7000000F007009C
:1014E00080F00703042B28BF04234FF0FF3C033890
:1014F0000CFA03F338BF0020994381400CFA00F046
:1015000022EA00000843704770470000704700005F
:10151000B0B582B00021019140F20161C0F2011129
:101520006C4600918DF8050020460621FEF74AFF23
:1015300040F60005C4F20205284601210122FFF70A
:101540007FF90220FFF794F840F29C00C2F20000FD
:10155000214608220A23FFF775FE0220FFF788F8CC
:10156000284601210022FFF76BF902B0B0BD000050
:10157000B0B582B00022010A019240F201626C46CD
:10158000C0F201328DF804108DF8050020460621C6
:101590000092FEF717FF40F60005C4F20205284648
:1015A00001210122FFF74CF90220FFF761F840F218
:1015B0009C00C2F20000214608220A23FFF742FEE7
:1015C0000220FFF755F8284601210022FFF738F9DD
:1015D00002B0B0BDB0B582B00021019140F201610E
:1015E000C0F201416C4600918DF8050020460621AD
:1015F000FEF7E8FE40F60005C4F202052846012188
:101600000122FFF71DF90220FFF732F840F29C009B
:10161000C2F20000214608220A23FFF713FE02202F
:10162000FFF726F8284601210022FFF709F902B04A
:10163000B0BD0000B0B501380024B4EB106F1CBF82
:101640000120B0BD4EF21005CEF2000568604FF0EB
:10165000FF300F2100F006FA0720AC60286020461A
:10166000B0BD000080B5FFF7F7F880BD70B592B04F
:1016700006AC20463021FEF7DBFD002543F6400096
:101680000595CDE90355CDE901550095C4F2020059
:101690000168022641F080510160006800F080502E
:1016A0000090009847F200000095C4F20000016825
:1016B00041F480410160006800F48040009000988F
:1016C000012006904FF4803007904FF480000D9079
:1016D00019200E904FF4A870CDE90F060420119048
:1016E00020460C96FFF74CFA88B90F20CDE9010689
:1016F0004FF4A05004904FF48050059001A80521AC
:101700000395FFF72FF9002804BF12B070BDFEF754
:1017100053FE00004EF68850CEF20000016841F4FE
:10172000700101607047000080B5806B0021C185A9
:10173000C184FFF7CFFB80BD016851E8031F026839
:1017400021F4907142E80313002BF5D1016851E8B0
:10175000051F026821F0010142E80513002BF5D1B5
:10176000016B01290AD100BF016851E8031F02681B
:1017700021F0100142E80313002BF5D1202180F85D
:101780003E1000210163704780B50168CA6822F0ED
:101790004002CA60202180F83D10FFF7B9FD80BDEE
:1017A00080B582B090F83E1022291ED18268B2F531
:1017B000805F02D10169002948D0816AB2F5805F5B
:1017C00007D00AB9026922B10268526802F07F02AA
:1017D00001E0026852680A700121826A1144816244
:1017E000C18D01390A04C18501D002B080BD0168F4
:1017F000CA6822F02002CA60CA6822F48072CA60F5
:101800004A6922F001024A61202180F83E10016BF2
:10181000012923D100210163016851E8031F0268F7
:1018200021F0100142E80313002BF5D101680A688A
:10183000D20606D5002201920A68019249680191F8
:101840000199818DFFF744FB02B080BD0168826A77
:1018500049686FF35F2111800221BEE7FFF7F0FCBA
:1018600002B080BD10B504460068D4E902C2236905
:10187000016921F4405111430161626943EA0C019D
:10188000E3691143C268194349F20C639A43114357
:10189000C1604169A26921F4407141F200431143E2
:1018A00040F48062C4F201039A42416102D1FFF721
:1018B00021F901E0FFF70CF9E16963681922B1F53C
:1018C000004FA0FB02011CD15A00DB0FFEF778FC91
:1018D00048F21F51C5F2EB11A0FB01235A096FF02A
:1018E000630302FB0300322303EBC000A0FB0101F2
:1018F0004FF4F87000EA111000EB0210C1F342112E
:101900001AE09A009B0FFEF75BFC48F21F51C5F2EC
:10191000EB11A0FB01235A096FF0630302FB0300E4
:10192000322303EB0010A0FB0101F02000EA51106C
:1019300000EB0210C1F3431122680843906010BD10
:1019400090F83D10212923D18168B1F5805F01D144
:10195000016931B1016A02684B1C03620978516068
:1019600007E0016A036831F8022B6FF35F225A60C7
:101970000162C18C01390A04C18418BF7047006834
:10198000C16821F08001C160C16841F04001C160BF
:10199000704700002DE9F0410446006800680840E7
:1019A000884202D10020BDE8F0811D460E469046D7
:1019B0005F1C04E0206800683040B042F2D0002F85
:1019C000F8D02DB1FEF742FFA0EB0800A842F1D9F4
:1019D000206850E8030F216820F4D07041E803022A
:1019E000002AF5D1206850E8050F216820F0010099
:1019F00041E80502002AF5D1202084F83D0084F852
:101A00003E00002084F83C000320BDE8F081000087
:101A100080B540F25800C2F20000FFF75DFA80BDC9
:101A200080B540F29C00C2F20000FFF755FA80BD7D
:101A3000FEE70000002848BF704700F01F010122A8
:101A400002FA01F14EF200124009CEF2000242F811
:101A5000201070474EF60C50CEF200000068C0F324
:101A6000022070474EF6145300F00F02CEF200032E
:101A700009011A4400F16043B0F1FF3FC8BF03F50C
:101A800064421170704700004EF60C51CEF2000116
:101A90000A684FF6FF031A4060F30A2242F08060A2
:101AA00040F0FD7008607047B0B582B00021019130
:101AB00040F20161C0F2010100916FF05A0100286B
:101AC00008BF01216C468DF8051020460621FEF75F
:101AD00079FC40F60005C4F20205284601210122E6
:101AE000FEF7AEFE0220FEF7C3FD40F29C00C2F2FC
:101AF0000000214608220A23FFF7A4FB0220FEF77C
:101B0000B7FD284601210022FEF79AFE02B0B0BDC3
:101B100040F60044C4F20204FEF7ACFEFFF7A6FD57
:101B2000FFF736FCFFF79EFCFFF7B8FCFFF7F4FB6E
:101B30000020FFF7B9FF0FE04FF47A756420FFF73C
:101B400049FD3220FFF7E4FC2846FFF711FD4FF472
:101B50007A70FEF78DFD374620464FF40071FEF790
:101B600069FE054620464FF48061FEF763FE0028BB
:101B7000314608BF0121012D18BF3146012808BF99
:101B80000326012D18BF0E46002808BF0E46F0B2EE
:101B9000F9B28842E0D00228CED30328D7D100255D
:101BA000CCE702E008C8121F08C1002AFAD170472A
:101BB0007047002001E001C1121F002AFBD17047CD
:101BC00000000000000000000102030406070809ED
:101BD0000000000001020304F81B000800000020C0
:101BE00010000000A21B0008081C000810000020C4
:101BF000D8040000B21B00080024F400010000001B
:081C00001000000000000000CC
:040000050800018965
:00000001FF
